F0000000064MHP064        GRASPAN COLLIERY                      20000712                              0000000                                                                             C          00           00    0000000 105001MHCB007 000           00000000        0000070000 000000000000000000000                                                                                                         POSBUS 272                                                                                                              MIDDELBURG                                                                                                                                                                                                                                                                                                                                                                                                                                                                                                                                                                                                                                                                                                                                                                                                                                                                                                                                                                                                                                                                                                                                                                                                                                                                                                                                                                                                                                                                                                                                                                                                                                  013                                                         2412500                                                                                                                                                                                                 013                                                         2412510                                                                                             0906000000000000000000000000000000000000        
F0000000084MHP084        PRODUKTA MOTORS                       20000713                              0000000                           DOROTHY@AUTOMAKERS.COM                            C          00           00    0000000 120003MHCB007 000           00000000        0000060000 000000000000000000000                                                                                                         POSBUS 578                    ANDREWSTRAAT 37                                                                           NELSPRUIT                     NELSPRUIT                                                                                                                                                                                                                                                                                                                                                                                                                 MEV                                     D                                                 DOROTHY                                                                                                                                               POTGIETER                                                                                                                                                                                                                                                                                                   ACC01                                             FIN01                                             DOROTHY@AUTOMAKERS.COM                                                                                                                                                                                                                                                                                                                                                                                                                                                                                              013                                                         7524101                                                                                             0827276948                                                                                          013                                                         7524927                                                                                             0217000000000000000000000000000000000000        
F0000000122MHP122                                              20000718                              0000000                                                                             C          00           00    0000000       MHDV003 000           00000000        0000000000 000000000000000000000                                                                                                                                                                                                                                                                                                                                                                                                                                                                                                                                                                                                                                                                                                                                                                                                                                                                                                                                                                                                                                                                                                                                                                                                                                                                                                                                                                                                                                                                                                                                                                                                                                                                                                                                                                                                                                                                                                                                                                                                                                                                                                                                                                                                                                                                                                                 0000000000000000000000000000000000000000        
F0000000135MHP135                                              20000718                              0000000                                                                             C          00           00    0000000       MHCB007 000           00000000        0000000000 000000000000000000000                                                                                                                                                                                                                                                                                                                                                                                                                                                                                                                                                                                                                                                                                                                                                                                                                                                                                                                                                                                                                                                                                                                                                                                                                                                                                                                                                                                                                                                                                                                                                                                                                                                                                                                                                                                                                                                                                                                                                                                                                                                                                                                                                                                                                                                                                                                 0000000000000000000000000000000000000000        
F0000000148MHP148                                              20000719                              0000000                                                                             C          00           00    0000000       MHTF004 000           00000000        0000000000 000000000000000000000                                                                                                                                                                                                                                                                                                                                                                                                                                                                                                                                                                                                                                                                                                                                                                                                                                                                                                                                                                                                                                                                                                                                                                                                                                                                                                                                                                                                                                                                                                                                                                                                                                                                                                                                                                                                                                                                                                                                                                                                                                                                                                                                                                                                                                                                                                                 0000000000000000000000000000000000000000        
F0000000178MHP178                                              20000719                              0000000                                                                             C          00           00    0000000       MHCB007 000           00000000        0000000000 000000000000000000000                                                                                                                                                                                                                                                                                                                                                                                                                                                                                                                                                                                                                                                                                                                                                                                                                                                                                                                                                                                                                                                                                                                                                                                                                                                                                                                                                                                                                                                                                                                                                                                                                                                                                                                                                                                                                                                                                                                                                                                                                                                                                                                                                                                                                                                                                                                 0000000000000000000000000000000000000000        
F0000000194MHP194                                              20000726                              0000000                                                                             C          00           00    0000000     01MHJC005 000           00000000        0000000000 000000000000000000000                                                                                                                                                                                                                                                                                                                                                                                                                                                                                                                                                                                                                                                                                             MRS                                      C                                                           CINDY                                                                                                                                                                BREEDT                                                                                                                                                                                                                                                                                                                               HR001                                                                                                                                                                                                                                                                                                                                                                                                                                                                                                                                                                  012                                                             3412160                                                                                                                                                                                             012                                                             3412417                                                                                   0000000000000000000000000000000000000000        
F0000000197MHP197                                              20000802                              0000000                                                                             C          00           00    0000000       MHED001 000           00000000        0000000000 000000000000000000000                                                                                                                                                                                                                                                                                                                                                                                                                                                                                                                                                                                                                                                                                                                                                                                                                                                                                                                                                                                                                                                                                                                                                                                                                                                                                                                                                                                                                                                                                                                                                                                                                                                                                                                                                                                                                                                                                                                                                                                                                                                                                                                                                                                                                                                                                                                 0000000000000000000000000000000000000000        
F0000000202MHP202                                              20000807                              0000000                                                                             C          00           00    0000000       MHKS002 000           00000000        0000000000 000000000000000000000                                                                                                                                                                                                                                                                                                                                                                                                                                                                                                                                                                                                                                                                                                                                                                                                                                                                                                                                                                                                                                                                                                                                                                                                                                                                                                                                                                                                                                                                                                                                                                                                                                                                                                                                                                                                                                                                                                                                                                                                                                                                                                                                                                                                                                                                                                                 0000000000000000000000000000000000000000        
F0000000204MHP204                                              20000807                              0000000                                                                             C          00           00    0000000       MHKS002 000           00000000        0000000000 000000000000000000000                                                                                                                                                                                                                                                                                                                                                                                                                                                                                                                                                                                                                                                                                                                                                                                                                                                                                                                                                                                                                                                                                                                                                                                                                                                                                                                                                                                                                                                                                                                                                                                                                                                                                                                                                                                                                                                                                                                                                                                                                                                                                                                                                                                                                                                                                                                 0000000000000000000000000000000000000000        
F0000000221MHP221                                              20000823                              0000000                                                                             C          00           00    0000000       MHCB007 000           00000000        0000000000 000000000000000000000                                                                                                                                                                                                                                                                                                                                                                                                                                                                                                                                                                                                                                                                                         ME                                      V                                                 VICKI                                                                                                                                                 ROBERTSON                                                                                                                                                                                                                                                                                                   ADM01                                             ADM01                                                                                                                                                                                                                                                                                                                                                                                                                                                                                                                                                                 015                                                         2912966                                                                                                                                                                                                 015                                                         2912956                                                                                             0000000000000000000000000000000000000000        
F0000000227MHP227                                              20000831                              0000000                                                                             C          00           00    0000000       MHMH008 000           00000000        0000000000 000000000000000000000                                                                                                                                                                                                                                                                                                                                                                                                                                                                                                                                                                                                                                                                                                                                                                                                                                                                                                                                                                                                                                                                                                                                                                                                                                                                                                                                                                                                                                                                                                                                                                                                                                                                                                                                                                                                                                                                                                                                                                                                                                                                                                                                                                                                                                                                                                                 0000000000000000000000000000000000000000        
F0000000246MHP246                                              20000918                              0000000                                                                             C          00           00    0000000       MHLG002 000           00000000        0000000000 000000000000000000000                                                                                                                                                                                                                                                                                                                                                                                                                                                                                                                                                                                                                                                                                                                                                                                                                                                                                                                                                                                                                                                                                                                                                                                                                                                                                                                                                                                                                                                                                                                                                                                                                                                                                                                                                                                                                                                                                                                                                                                                                                                                                                                                                                                                                                                                                                                 0000000000000000000000000000000000000000        
F0000000268MHP268    BRAKDOMINANTE INTERNATIONAL HOLDIN1997010120000920                              0000000                           DOMAIR@NETACTIVE.CO.ZA                            C          00           00    0000000 154404MHMJ002 000           00000000        0000000000 000000000000000000000                                                                                                         POSBUS 3096                   HV LEMMER DENSE                                                                           DALVIEW                       WILKANIA                                                                                                                BRAKPAN                                                                                                                                                                                                                                                                                           ME                                      M                                                 MARYKE                                                                                                                                                GROENEWALD                                                                                                                                                                                                                                                                                                  SEC01                                             EXE01                                             DOMAIR@NETACTIVE.CO.ZA                                                                                                                                                                                                                                                                                                                                                                                                                                                                                              011                                                         7402427                                                                                                                                                                                                 011                                                         7402275                                                                                             0106000000000000000000000000000000000000        
